*I*165ACUERD180305180302                                                                                                                                                                                                                                                                                                                                                                                        
*F*165ACUERD                                                                                                                                                                                                                                                                                                                                                                                                    
*I*165DOLDIF180305180302                                                                                                                                                                                                                                                                                                                                                                                        
*F*165DOLDIF                                                                                                                                                                                                                                                                                                                                                                                                    
*I*165DOLMOV180305180302                                                                                                                                                                                                                                                                                                                                                                                        
*F*165DOLMOV                                                                                                                                                                                                                                                                                                                                                                                                    
*I*165MOVCUE180305180302                                                                                                                                                                                                                                                                                                                                                                                        
MOVCUE16500011005026800401180228180228D00000000000001350001001132400001N240000      18022800001         LEY25413DB               76   20165901275PRUEBA DENOMINACION                     1650001910050268002033                                                                                                                                                                                                 
MOVCUE16500011005026800401180228180228D00000000000018000001001132400001O590000      18022800001         TR.C.PR.LD               222  20165901275PRUEBA DENOMINACION                     1650001910050268002033                                                                                                                                                                                                 
MOVCUE16500011005026800401180228180228D00000000000018000002001132400002O590000      18022800001         TR.C.PR.LD               222  20165901275PRUEBA DENOMINACION                     1650001910050268002033                                                                                                                                                                                                 
MOVCUE16500011005026800401180228180228D00000000000001350002001132400002N240000      18022800001         LEY25413DB               76   20165901275PRUEBA DENOMINACION                     1650001910050268002033                                                                                                                                                                                                 
MOVCUE16500011005026800401180228180228D00000000000018000003001132400003O590000      18022800001         TR.C.PR.LD               222  20165901275PRUEBA DENOMINACION                     1650001910050268002033                                                                                                                                                                                                 
MOVCUE16500011005026800401180228180228D00000000000001350003001132400003N240000      18022800001         LEY25413DB               76   20165901275PRUEBA DENOMINACION                     1650001910050268002033                                                                                                                                                                                                 
MOVCUE16500011005026800401180228180228D00000000000000528001001132600001N240000      18022800001         LEY25413DB               76   20165901275PRUEBA DENOMINACION                     1650001910050268002033                                                                                                                                                                                                 
MOVCUE16500011005026800401180228180228D00000000000007038001001132600001O590000      18022800001         TR.C.PR.LD               222  20165901275PRUEBA DENOMINACION                     1650001910050268002033                                                                                                                                                                                                 
MOVCUE16500011005026800401180228180228D00000000000007038002001132600003O590000      18022800001         TR.C.PR.LD               222  20165901275PRUEBA DENOMINACION                     1650001910050268002033                                                                                                                                                                                                 
MOVCUE16500011005026800401180228180228D00000000000000528002001132600003N240000      18022800001         LEY25413DB               76   20165901275PRUEBA DENOMINACION                     1650001910050268002033                                                                                                                                                                                                 
MOVCUE16500011005026800401180227180227D00000000000000100001001132400001O590000      18022700001         TR.C.PR.LD               222  20165901275PRUEBA DENOMINACION                     1650001910050268002033                                                                                                                                                                                                 
MOVCUE16500011005026800401180227180227D00000000000000008001001132400001N240000      18022700001         LEY25413DB               76   20165901275PRUEBA DENOMINACION                     1650001910050268002033                                                                                                                                                                                                 
MOVCUE16500011005026800401180227180227D00000000000000100002001132400002O590000      18022700001         TR.C.PR.LD               222  20165901275PRUEBA DENOMINACION                     1650001910050268002033                                                                                                                                                                                                 
MOVCUE16500011005026800401180227180227D00000000000000008002001132400002N240000      18022700001         LEY25413DB               76   20165901275PRUEBA DENOMINACION                     1650001910050268002033                                                                                                                                                                                                 
MOVCUE16500011005026800401180227180227D00000000000035190001001132400003O590000      18022700001         TR.C.PR.LD               222  20165901275PRUEBA DENOMINACION                     1650001910050268002033                                                                                                                                                                                                 
MOVCUE16500011005026800401180227180227D00000000000002639001001132400003N240000      18022700001         LEY25413DB               76   20165901275PRUEBA DENOMINACION                     1650001910050268002033                                                                                                                                                                                                 
MOVCUE16500011005026800401180227180227D00000000000035190002001132400004O590000      18022700001         TR.C.PR.LD               222  20165901275PRUEBA DENOMINACION                     1650001910050268002033                                                                                                                                                                                                 
MOVCUE16500011005026800401180227180227D00000000000002639002001132400004N240000      18022700001         LEY25413DB               76   20165901275PRUEBA DENOMINACION                     1650001910050268002033                                                                                                                                                                                                 
MOVCUE16500011005026800401180227180227D00000000000035190003001132400005O590000      18022700001         TR.C.PR.LD               222  20165901275PRUEBA DENOMINACION                     1650001910050268002033                                                                                                                                                                                                 
MOVCUE16500011005026800401180227180227D00000000000002639003001132400005N240000      18022700001         LEY25413DB               76   20165901275PRUEBA DENOMINACION                     1650001910050268002033                                                                                                                                                                                                 
MOVCUE16500011005026800401180227180227D00000000000035190004001132400006O590000      18022700001         TR.C.PR.LD               222  20165901275PRUEBA DENOMINACION                     1650001910050268002033                                                                                                                                                                                                 
MOVCUE16500011005026800401180227180227D00000000000002639004001132400006N240000      18022700001         LEY25413DB               76   20165901275PRUEBA DENOMINACION                     1650001910050268002033                                                                                                                                                                                                 
MOVCUE16500011005026800401180227180227D00000000000035190005001132400007O590000      18022700001         TR.C.PR.LD               222  20165901275PRUEBA DENOMINACION                     1650001910050268002033                                                                                                                                                                                                 
MOVCUE16500011005026800401180227180227D00000000000002639005001132400007N240000      18022700001         LEY25413DB               76   20165901275PRUEBA DENOMINACION                     1650001910050268002033                                                                                                                                                                                                 
MOVCUE16500011005026800401180227180227D00000000000000527001001132600005N240000      18022700001         LEY25413DB               76   20165901275PRUEBA DENOMINACION                     1650001910050268002033                                                                                                                                                                                                 
MOVCUE16500011005026800401180227180227D00000000000007031001001132600005O590000      18022700001         TR.C.PR.LD               222  20165901275PRUEBA DENOMINACION                     1650001910050268002033                                                                                                                                                                                                 
MOVCUE16500011005026800401180227180227D00000000000007038001001132600001O590000      18022700001         TR.C.PR.LD               222  20165901275PRUEBA DENOMINACION                     1650001910050268002033                                                                                                                                                                                                 
MOVCUE16500011005026800401180227180227D00000000000000528001001132600001N240000      18022700001         LEY25413DB               76   20165901275PRUEBA DENOMINACION                     1650001910050268002033                                                                                                                                                                                                 
MOVCUE16500011005026800401180227180227D00000000000007038002001132600002O590000      18022700001         TR.C.PR.LD               222  20165901275PRUEBA DENOMINACION                     1650001910050268002033                                                                                                                                                                                                 
MOVCUE16500011005026800401180227180227D00000000000000528002001132600002N240000      18022700001         LEY25413DB               76   20165901275PRUEBA DENOMINACION                     1650001910050268002033                                                                                                                                                                                                 
MOVCUE16500011005026800401180227180227D00000000000007038003001132600003O590000      18022700001         TR.C.PR.LD               222  20165901275PRUEBA DENOMINACION                     1650001910050268002033                                                                                                                                                                                                 
MOVCUE16500011005026800401180227180227D00000000000000528003001132600003N240000      18022700001         LEY25413DB               76   20165901275PRUEBA DENOMINACION                     1650001910050268002033                                                                                                                                                                                                 
MOVCUE16500011005026800401180227180227D00000000000007031002001132600004O590000      18022700001         TR.C.PR.LD               222  20165901275PRUEBA DENOMINACION                     1650001910050268002033                                                                                                                                                                                                 
MOVCUE16500011005026800401180227180227D00000000000000527002001132600004N240000      18022700001         LEY25413DB               76   20165901275PRUEBA DENOMINACION                     1650001910050268002033                                                                                                                                                                                                 
MOVCUE16500011005026800401180227180227D00000000000007011001001132600006O590000      18022700001         TR.C.PR.LD               222  20165901275PRUEBA DENOMINACION                     1650001910050268002033                                                                                                                                                                                                 
MOVCUE16500011005026800401180227180227D00000000000000526001001132600006N240000      18022700001         LEY25413DB               76   20165901275PRUEBA DENOMINACION                     1650001910050268002033                                                                                                                                                                                                 
MOVCUE16500011005026800401180227180227D00000000000007031003001132600007O590000      18022700001         TR.C.PR.LD               222  20165901275PRUEBA DENOMINACION                     1650001910050268002033                                                                                                                                                                                                 
MOVCUE16500011005026800401180227180227D00000000000000527003001132600007N240000      18022700001         LEY25413DB               76   20165901275PRUEBA DENOMINACION                     1650001910050268002033                                                                                                                                                                                                 
MOVCUE16500011005026800401180227180227D00000000000007031004001132600008O590000      18022700001         TR.C.PR.LD               222  20165901275PRUEBA DENOMINACION                     1650001910050268002033                                                                                                                                                                                                 
MOVCUE16500011005026800401180227180227D00000000000000527004001132600008N240000      18022700001         LEY25413DB               76   20165901275PRUEBA DENOMINACION                     1650001910050268002033                                                                                                                                                                                                 
MOVCUE16500011005026800401180227180227D00000000000007011002001132600009O590000      18022700001         TR.C.PR.LD               222  20165901275PRUEBA DENOMINACION                     1650001910050268002033                                                                                                                                                                                                 
MOVCUE16500011005026800401180227180227D00000000000000526002001132600009N240000      18022700001         LEY25413DB               76   20165901275PRUEBA DENOMINACION                     1650001910050268002033                                                                                                                                                                                                 
MOVCUE16500011005026800401180227180227C00000000000007038001001137400005O630000      18022700001         AJUS.DN LD               822  20165901275PRUEBA DENOMINACION                     1650001910050268002033                                                                                                                                                                                                 
MOVCUE16500011005026800401180227180227C00000000000000528001001137400005R980000      18022700001         AJL25413DB               576  20165901275PRUEBA DENOMINACION                     1650001910050268002033                                                                                                                                                                                                 
MOVCUE16500011005026800401180227180227C00000000000007038002001137400001O630000      18022700001         AJUS.DN LD               822  20165901275PRUEBA DENOMINACION                     1650001910050268002033                                                                                                                                                                                                 
MOVCUE16500011005026800401180227180227C00000000000000528002001137400001R980000      18022700001         AJL25413DB               576  20165901275PRUEBA DENOMINACION                     1650001910050268002033                                                                                                                                                                                                 
MOVCUE16500011005026800401180227180227C00000000000007038003001137400002O630000      18022700001         AJUS.DN LD               822  20165901275PRUEBA DENOMINACION                     1650001910050268002033                                                                                                                                                                                                 
MOVCUE16500011005026800401180227180227C00000000000000528003001137400002R980000      18022700001         AJL25413DB               576  20165901275PRUEBA DENOMINACION                     1650001910050268002033                                                                                                                                                                                                 
MOVCUE16500011005026800401180227180227C00000000000007038004001137400003O630000      18022700001         AJUS.DN LD               822  20165901275PRUEBA DENOMINACION                     1650001910050268002033                                                                                                                                                                                                 
MOVCUE16500011005026800401180227180227C00000000000000528004001137400003R980000      18022700001         AJL25413DB               576  20165901275PRUEBA DENOMINACION                     1650001910050268002033                                                                                                                                                                                                 
MOVCUE16500011005026800401180227180227C00000000000007038005001137400004O630000      18022700001         AJUS.DN LD               822  20165901275PRUEBA DENOMINACION                     1650001910050268002033                                                                                                                                                                                                 
MOVCUE16500011005026800401180227180227C00000000000000528005001137400004R980000      18022700001         AJL25413DB               576  20165901275PRUEBA DENOMINACION                     1650001910050268002033                                                                                                                                                                                                 
MOVCUE16500011005026800401180227180227C00000000000007038006001137400006O630000      18022700001         AJUS.DN LD               822  20165901275PRUEBA DENOMINACION                     1650001910050268002033                                                                                                                                                                                                 
MOVCUE16500011005026800401180227180227C00000000000000528006001137400006R980000      18022700001         AJL25413DB               576  20165901275PRUEBA DENOMINACION                     1650001910050268002033                                                                                                                                                                                                 
MOVCUE16500011005026800401180227180227C00000000000007038007001137400007O630000      18022700001         AJUS.DN LD               822  20165901275PRUEBA DENOMINACION                     1650001910050268002033                                                                                                                                                                                                 
MOVCUE16500011005026800401180227180227C00000000000000528007001137400007R980000      18022700001         AJL25413DB               576  20165901275PRUEBA DENOMINACION                     1650001910050268002033                                                                                                                                                                                                 
MOVCUE16500011005026800401180227180227C00000000000007038008001137400008O630000      18022700001         AJUS.DN LD               822  20165901275PRUEBA DENOMINACION                     1650001910050268002033                                                                                                                                                                                                 
MOVCUE16500011005026800401180227180227C00000000000000528008001137400008R980000      18022700001         AJL25413DB               576  20165901275PRUEBA DENOMINACION                     1650001910050268002033                                                                                                                                                                                                 
MOVCUE16500011005026800401180227180227C00000000000007038009001137400009O630000      18022700001         AJUS.DN LD               822  20165901275PRUEBA DENOMINACION                     1650001910050268002033                                                                                                                                                                                                 
MOVCUE16500011005026800401180227180227C00000000000000528009001137400009R980000      18022700001         AJL25413DB               576  20165901275PRUEBA DENOMINACION                     1650001910050268002033                                                                                                                                                                                                 
MOVCUE16500011005026800401180227180227C00000000000007038010001137400010O630000      18022700001         AJUS.DN LD               822  20165901275PRUEBA DENOMINACION                     1650001910050268002033                                                                                                                                                                                                 
MOVCUE16500011005026800401180227180227C00000000000000528010001137400010R980000      18022700001         AJL25413DB               576  20165901275PRUEBA DENOMINACION                     1650001910050268002033                                                                                                                                                                                                 
MOVCUE16500011005026800401180227180227C00000000000007038011001137400011O630000      18022700001         AJUS.DN LD               822  20165901275PRUEBA DENOMINACION                     1650001910050268002033                                                                                                                                                                                                 
MOVCUE16500011005026800401180227180227C00000000000000528011001137400011R980000      18022700001         AJL25413DB               576  20165901275PRUEBA DENOMINACION                     1650001910050268002033                                                                                                                                                                                                 
MOVCUE16500011005026800401180227180227C00000000000000528012001137400012R980000      18022700001         AJL25413DB               576  20165901275PRUEBA DENOMINACION                     1650001910050268002033                                                                                                                                                                                                 
MOVCUE16500011005026800401180227180227C00000000000007038012001137400012O630000      18022700001         AJUS.DN LD               822  20165901275PRUEBA DENOMINACION                     1650001910050268002033                                                                                                                                                                                                 
MOVCUE16500011005026800401180227180227C00000000000007038013001137400013O630000      18022700001         AJUS.DN LD               822  20165901275PRUEBA DENOMINACION                     1650001910050268002033                                                                                                                                                                                                 
MOVCUE16500011005026800401180227180227C00000000000000528013001137400013R980000      18022700001         AJL25413DB               576  20165901275PRUEBA DENOMINACION                     1650001910050268002033                                                                                                                                                                                                 
MOVCUE16500011005026800401180227180227C00000000000007038014001137400014O630000      18022700001         AJUS.DN LD               822  20165901275PRUEBA DENOMINACION                     1650001910050268002033                                                                                                                                                                                                 
MOVCUE16500011005026800401180227180227C00000000000000528014001137400014R980000      18022700001         AJL25413DB               576  20165901275PRUEBA DENOMINACION                     1650001910050268002033                                                                                                                                                                                                 
MOVCUE16500011005026800401180227180227C00000000000007038015001137400015O630000      18022700001         AJUS.DN LD               822  20165901275PRUEBA DENOMINACION                     1650001910050268002033                                                                                                                                                                                                 
MOVCUE16500011005026800401180227180227C00000000000000528015001137400015R980000      18022700001         AJL25413DB               576  20165901275PRUEBA DENOMINACION                     1650001910050268002033                                                                                                                                                                                                 
MOVCUE16500011005026800401180227180227C00000000000000100001001837432706O590000      18022700001         TR.C.PR.LD               222  20165901275PRUEBA DENOMINACION                     1650001910050268002033                                                                                                                                                                                                 
MOVCUE16500011005026800401180227180227C00000000000000008001001837432706N240000      18022700001         LEY25413DB               76   20165901275PRUEBA DENOMINACION                     1650001910050268002033                                                                                                                                                                                                 
MOVCUE16500011005026800401180227180227C00000000000000100002001837432705O590000      18022700001         TR.C.PR.LD               222  20165901275PRUEBA DENOMINACION                     1650001910050268002033                                                                                                                                                                                                 
MOVCUE16500011005026800401180227180227C00000000000000008002001837432705N240000      18022700001         LEY25413DB               76   20165901275PRUEBA DENOMINACION                     1650001910050268002033                                                                                                                                                                                                 
MOVCUE16500011005026800401180222180222D00000000000000077001001132400001N240000      18022200001         LEY25413DB               76   20165901275PRUEBA DENOMINACION                     1650001910050268002033                                                                                                                                                                                                 
MOVCUE16500011005026800401180222180222D00000000000001030001001132400001O590000      18022200001         TR.C.PR.LD               222  20165901275PRUEBA DENOMINACION                     1650001910050268002033                                                                                                                                                                                                 
MOVCUE16500011005026800401180221180221D00000000000000077001001132400001N240000      18022100001         LEY25413DB               76   20165901275PRUEBA DENOMINACION                     1650001910050268002033                                                                                                                                                                                                 
MOVCUE16500011005026800401180221180221D00000000000001030001001132400001O590000      18022100001         TR.C.PR.LD               222  20165901275PRUEBA DENOMINACION                     1650001910050268002033                                                                                                                                                                                                 
MOVCUE16500011005026800401180221180221D00000000000008930001001132400002O590000      18022100001         TR.C.PR.LD               222  20165901275PRUEBA DENOMINACION                     1650001910050268002033                                                                                                                                                                                                 
MOVCUE16500011005026800401180221180221D00000000000000670001001132400002N240000      18022100001         LEY25413DB               76   20165901275PRUEBA DENOMINACION                     1650001910050268002033                                                                                                                                                                                                 
MOVCUE16500011005026800401180221180221D00000000000080030001001132400003O590000      18022100001         TR.C.PR.LD               222  20165901275PRUEBA DENOMINACION                     1650001910050268002033                                                                                                                                                                                                 
MOVCUE16500011005026800401180221180221D00000000000006002001001132400003N240000      18022100001         LEY25413DB               76   20165901275PRUEBA DENOMINACION                     1650001910050268002033                                                                                                                                                                                                 
MOVCUE16500011005026800401180221180221D00000000000001030002001132400004O590000      18022100001         TR.C.PR.LD               222  20165901275PRUEBA DENOMINACION                     1650001910050268002033                                                                                                                                                                                                 
MOVCUE16500011005026800401180221180221D00000000000000077002001132400004N240000      18022100001         LEY25413DB               76   20165901275PRUEBA DENOMINACION                     1650001910050268002033                                                                                                                                                                                                 
MOVCUE16500011005026800401180221180221D00000000000002060001001132400005O590000      18022100001         TR.C.PR.LD               222  20165901275PRUEBA DENOMINACION                     1650001910050268002033                                                                                                                                                                                                 
MOVCUE16500011005026800401180221180221D00000000000000155001001132400005N240000      18022100001         LEY25413DB               76   20165901275PRUEBA DENOMINACION                     1650001910050268002033                                                                                                                                                                                                 
MOVCUE16500011005026800401180221180221D00000000000000926001001132400006O590000      18022100001         TR.C.PR.LD               222  20165901275PRUEBA DENOMINACION                     1650001910050268002033                                                                                                                                                                                                 
MOVCUE16500011005026800401180221180221D00000000000000069001001132400006N240000      18022100001         LEY25413DB               76   20165901275PRUEBA DENOMINACION                     1650001910050268002033                                                                                                                                                                                                 
MOVCUE16500011005026800401180221180221D00000000000008829001001132400007O590000      18022100001         TR.C.PR.LD               222  20165901275PRUEBA DENOMINACION                     1650001910050268002033                                                                                                                                                                                                 
MOVCUE16500011005026800401180221180221D00000000000000662001001132400007N240000      18022100001         LEY25413DB               76   20165901275PRUEBA DENOMINACION                     1650001910050268002033                                                                                                                                                                                                 
MOVCUE16500011005026800401180221180221D00000000000017860001001132400008O590000      18022100001         TR.C.PR.LD               222  20165901275PRUEBA DENOMINACION                     1650001910050268002033                                                                                                                                                                                                 
MOVCUE16500011005026800401180221180221D00000000000001340001001132400008N240000      18022100001         LEY25413DB               76   20165901275PRUEBA DENOMINACION                     1650001910050268002033                                                                                                                                                                                                 
MOVCUE16500011005026800401180221180221D00000000000080030002001132400009O590000      18022100001         TR.C.PR.LD               222  20165901275PRUEBA DENOMINACION                     1650001910050268002033                                                                                                                                                                                                 
MOVCUE16500011005026800401180221180221D00000000000006002002001132400009N240000      18022100001         LEY25413DB               76   20165901275PRUEBA DENOMINACION                     1650001910050268002033                                                                                                                                                                                                 
MOVCUE16500011005026800401180221180221D00000000000016726001001132400010O590000      18022100001         TR.C.PR.LD               222  20165901275PRUEBA DENOMINACION                     1650001910050268002033                                                                                                                                                                                                 
MOVCUE16500011005026800401180221180221D00000000000001254001001132400010N240000      18022100001         LEY25413DB               76   20165901275PRUEBA DENOMINACION                     1650001910050268002033                                                                                                                                                                                                 
MOVCUE16500011005026800401180221180221D00000000000160060001001132400011O590000      18022100001         TR.C.PR.LD               222  20165901275PRUEBA DENOMINACION                     1650001910050268002033                                                                                                                                                                                                 
MOVCUE16500011005026800401180221180221D00000000000012004001001132400011N240000      18022100001         LEY25413DB               76   20165901275PRUEBA DENOMINACION                     1650001910050268002033                                                                                                                                                                                                 
MOVCUE16500011005026800401180221180221D00000000000048326001001132400012O590000      18022100001         TR.C.PR.LD               222  20165901275PRUEBA DENOMINACION                     1650001910050268002033                                                                                                                                                                                                 
MOVCUE16500011005026800401180221180221D00000000000003624001001132400012N240000      18022100001         LEY25413DB               76   20165901275PRUEBA DENOMINACION                     1650001910050268002033                                                                                                                                                                                                 
MOVCUE16500011005026800401180221180221D00000000000002060002001132400013O590000      18022100001         TR.C.PR.LD               222  20165901275PRUEBA DENOMINACION                     1650001910050268002033                                                                                                                                                                                                 
MOVCUE16500011005026800401180221180221D00000000000000155002001132400013N240000      18022100001         LEY25413DB               76   20165901275PRUEBA DENOMINACION                     1650001910050268002033                                                                                                                                                                                                 
MOVCUE16500011005026800401180221180221D00000000000000314001001132400014O590000      18022100001         TR.C.PR.LD               222  20165901275PRUEBA DENOMINACION                     1650001910050268002033                                                                                                                                                                                                 
MOVCUE16500011005026800401180221180221D00000000000000024001001132400014N240000      18022100001         LEY25413DB               76   20165901275PRUEBA DENOMINACION                     1650001910050268002033                                                                                                                                                                                                 
MOVCUE16500011005026800401180221180221D00000000000001030003001132400015O590000      18022100001         TR.C.PR.LD               222  20165901275PRUEBA DENOMINACION                     1650001910050268002033                                                                                                                                                                                                 
MOVCUE16500011005026800401180221180221D00000000000000077003001132400015N240000      18022100001         LEY25413DB               76   20165901275PRUEBA DENOMINACION                     1650001910050268002033                                                                                                                                                                                                 
MOVCUE16500011005026800401180221180221D00000000000000314002001132400016O590000      18022100001         TR.C.PR.LD               222  20165901275PRUEBA DENOMINACION                     1650001910050268002033                                                                                                                                                                                                 
MOVCUE16500011005026800401180221180221D00000000000000024002001132400016N240000      18022100001         LEY25413DB               76   20165901275PRUEBA DENOMINACION                     1650001910050268002033                                                                                                                                                                                                 
MOVCUE16500011005026800401180221180221D00000000000000314003001132400017O590000      18022100001         TR.C.PR.LD               222  20165901275PRUEBA DENOMINACION                     1650001910050268002033                                                                                                                                                                                                 
MOVCUE16500011005026800401180221180221D00000000000000024003001132400017N240000      18022100001         LEY25413DB               76   20165901275PRUEBA DENOMINACION                     1650001910050268002033                                                                                                                                                                                                 
MOVCUE16500011005026800401180221180221D00000000000006001001001132400018O590000      18022100001         TR.C.PR.LD               222  20165901275PRUEBA DENOMINACION                     1650001910050268002033                                                                                                                                                                                                 
MOVCUE16500011005026800401180221180221D00000000000000450001001132400018N240000      18022100001         LEY25413DB               76   20165901275PRUEBA DENOMINACION                     1650001910050268002033                                                                                                                                                                                                 
MOVCUE16500011005026800401180221180221D00000000000006001002001132400019O590000      18022100001         TR.C.PR.LD               222  20165901275PRUEBA DENOMINACION                     1650001910050268002033                                                                                                                                                                                                 
MOVCUE16500011005026800401180221180221D00000000000000450002001132400019N240000      18022100001         LEY25413DB               76   20165901275PRUEBA DENOMINACION                     1650001910050268002033                                                                                                                                                                                                 
MOVCUE16500011005026800401180221180221D00000000000006001003001132400020O590000      18022100001         TR.C.PR.LD               222  20165901275PRUEBA DENOMINACION                     1650001910050268002033                                                                                                                                                                                                 
MOVCUE16500011005026800401180221180221D00000000000000450003001132400020N240000      18022100001         LEY25413DB               76   20165901275PRUEBA DENOMINACION                     1650001910050268002033                                                                                                                                                                                                 
MOVCUE16500011005026800401180221180221D00000000000006001004001132400021O590000      18022100001         TR.C.PR.LD               222  20165901275PRUEBA DENOMINACION                     1650001910050268002033                                                                                                                                                                                                 
MOVCUE16500011005026800401180221180221D00000000000000450004001132400021N240000      18022100001         LEY25413DB               76   20165901275PRUEBA DENOMINACION                     1650001910050268002033                                                                                                                                                                                                 
MOVCUE16500011005026800401180221180221D00000000000006001005001132400022O590000      18022100001         TR.C.PR.LD               222  20165901275PRUEBA DENOMINACION                     1650001910050268002033                                                                                                                                                                                                 
MOVCUE16500011005026800401180221180221D00000000000000450005001132400022N240000      18022100001         LEY25413DB               76   20165901275PRUEBA DENOMINACION                     1650001910050268002033                                                                                                                                                                                                 
MOVCUE16500011005026800401180221180221D00000000000006001006001132400023O590000      18022100001         TR.C.PR.LD               222  20165901275PRUEBA DENOMINACION                     1650001910050268002033                                                                                                                                                                                                 
MOVCUE16500011005026800401180221180221D00000000000000450006001132400023N240000      18022100001         LEY25413DB               76   20165901275PRUEBA DENOMINACION                     1650001910050268002033                                                                                                                                                                                                 
MOVCUE16500011005026800401180221180221D00000000000006001007001132400024O590000      18022100001         TR.C.PR.LD               222  20165901275PRUEBA DENOMINACION                     1650001910050268002033                                                                                                                                                                                                 
MOVCUE16500011005026800401180221180221D00000000000000450007001132400024N240000      18022100001         LEY25413DB               76   20165901275PRUEBA DENOMINACION                     1650001910050268002033                                                                                                                                                                                                 
MOVCUE16500011005026800401180221180221D00000000000006001008001132400025O590000      18022100001         TR.C.PR.LD               222  20165901275PRUEBA DENOMINACION                     1650001910050268002033                                                                                                                                                                                                 
MOVCUE16500011005026800401180221180221D00000000000000450008001132400025N240000      18022100001         LEY25413DB               76   20165901275PRUEBA DENOMINACION                     1650001910050268002033                                                                                                                                                                                                 
MOVCUE16500011005026800401180221180221D00000000000006001009001132400026O590000      18022100001         TR.C.PR.LD               222  20165901275PRUEBA DENOMINACION                     1650001910050268002033                                                                                                                                                                                                 
MOVCUE16500011005026800401180221180221D00000000000000450009001132400026N240000      18022100001         LEY25413DB               76   20165901275PRUEBA DENOMINACION                     1650001910050268002033                                                                                                                                                                                                 
MOVCUE16500011005026800401180221180221D00000000000006001010001132400027O590000      18022100001         TR.C.PR.LD               222  20165901275PRUEBA DENOMINACION                     1650001910050268002033                                                                                                                                                                                                 
MOVCUE16500011005026800401180221180221D00000000000000450010001132400027N240000      18022100001         LEY25413DB               76   20165901275PRUEBA DENOMINACION                     1650001910050268002033                                                                                                                                                                                                 
MOVCUE16500011005026800401180221180221C00000000000006001001001837432706O590000      18022100001         TR.C.PR.LD               222  20165901275PRUEBA DENOMINACION                     1650001910050268002033                                                                                                                                                                                                 
MOVCUE16500011005026800401180221180221C00000000000000450001001837432706N240000      18022100001         LEY25413DB               76   20165901275PRUEBA DENOMINACION                     1650001910050268002033                                                                                                                                                                                                 
MOVCUE16500011005026800401180221180221C00000000000006001002001837432705O590000      18022100001         TR.C.PR.LD               222  20165901275PRUEBA DENOMINACION                     1650001910050268002033                                                                                                                                                                                                 
MOVCUE16500011005026800401180221180221C00000000000000450002001837432705N240000      18022100001         LEY25413DB               76   20165901275PRUEBA DENOMINACION                     1650001910050268002033                                                                                                                                                                                                 
*F*165MOVCUE                                                                                                                                                                                                                                                                                                                                                                                                    
*I*165MOVDIF180305180302                                                                                                                                                                                                                                                                                                                                                                                        
*F*165MOVDIF                                                                                                                                                                                                                                                                                                                                                                                                    
